:100000000C9464000C948C000C948C000C948C0068
:100010000C948C000C948C000C948C000C948C0030
:100020000C948C000C948C000C948C000C948C0020
:100030000C948C000C948C000C948C000C948C0010
:100040000C949C060C948C000C9472090C94A409DA
:100050000C948C000C948C000C948C000C948C00F0
:100060000C946F050C948C00000000080002010045
:100070000003040700000000000000000102040863
:100080001020408001020408102001020408102002
:10009000040404040404040402020202020203032E
:1000A00003030303000000002300260029000000D2
:1000B0000000250028002B0000000000240027007D
:1000C0002A002F018504D40911241FBECFEFD8E0E8
:1000D000DEBFCDBF11E0A0E0B1E0EAE4FBE102C089
:1000E00005900D92AA34B107D9F722E0AAE4B1E055
:1000F00001C01D92A63FB207E1F710E0C8ECD0E0C6
:1001000004C02297FE010E949F0DC23CD107C9F78F
:100110000E94180A0C94A30D0C94000026E040E8FD
:1001200055E260E070E089E592E00E94100960E02D
:1001300088E00E94950761E089E00E94950760E4ED
:1001400076E084E591E00C944E016FEF80915201CE
:10015000909153010E945D0261E080915201909163
:1001600053010E9430026FEF809150019091510134
:100170000E945D0261E080915001909151010C94C8
:10018000300260E080915201909153010E945D0223
:1001900064E080915201909153010E94300260E02E
:1001A00080915001909151010E945D0264E0809124
:1001B0005001909151010C94300288E00E94040893
:1001C00090934F0180934E0120914C0130914D014D
:1001D0008217930771F1019701F580914A0190917F
:1001E0004B01019690934B0180934A0160E071E0CE
:1001F00089E592E00E94700A63E071E089E592E08F
:100200000E94700A60914A0170914B014AE050E0EF
:1002100089E592E00E94250B06C065E171E089E561
:1002200092E00E94700A62E370E080E090E00E9439
:10023000090780914E0190914F0190934D01809359
:100240004C0180914A0180FD04C00E94C10061E020
:1002500003C00E94A50060E089E00C94CE0760E630
:1002600084E591E00E94EE0161E084E591E00E9466
:100270009901909353018093520162E084E591E0EB
:100280000E9499019093510180935001089520E0BC
:1002900030E040E050E0CB960C947102EF92FF9278
:1002A0000F931F93CF93DF938C017B0180E991E043
:1002B0000E94F703E801EB96CE010E94DE02F801EE
:1002C000F282E182B70180E090E00E94370CAB013E
:1002D000BC01CE010E940B0310E020E030E040E0C2
:1002E00050E0612FCE010E9471021F5F1031A9F70B
:1002F000DF91CF911F910F91FF90EF9008959A0198
:10030000CB96211540E1340728F020E030E040E0B2
:1003100050E102C040E050E00C947102411102C073
:100320000C94470120E030E040E050E1CB960C9483
:100330007102CF939C01653008F044C06150C6E063
:10034000462F50E0FC01C69FE00DF11D1124808571
:1003500081112EC06087CA010196C89FF001C99F14
:10036000F00D1124E20FF31F31832083662351F037
:10037000613061F0623071F0633079F476E0A5E0CD
:10038000B7E00BC079E0AAE0B8E007C07CE0ABE0E2
:10039000BDE003C073E0A4E0B2E086E0849FF0011A
:1003A000859FF00D1124E20FF31FB383A48375839F
:1003B00066E0649FC001659F900D11240396820F33
:1003C000931F02C080E090E0CF910895FC01148259
:1003D000138215821282118210820895BF92CF92E9
:1003E000DF92EF92FF920F931F93CF93DF931F92B1
:1003F000CDB7DEB78C01B62E7C0183E0E80EF11C90
:100400006801EBE1CE0ED11CC7010E94E601F6E0C7
:10041000EF0EF11CEC14FD04B9F7F80117A212A6B7
:1004200016A215A217AA12AE16AA15AA60E4C80150
:10043000CB960E946E02F801B0826B2DCE01019620
:100440000E946E028981F80183AF0F90DF91CF91F6
:100450001F910F91FF90EF90DF90CF90BF90089584
:10046000CF93DF93EC01623061F06430B9F061301A
:1004700009F56A818B819C810E94470141E0698175
:1004800007C069818B819C810E94470141E06A819C
:100490008B819C81DF91CF910C948E0169818B813E
:1004A0009C810E9447016A818B819C81DF91CF9161
:1004B0000C944701DF91CF91089520E1629FA00144
:1004C0001124FC016081838194810C947F01DC0103
:1004D000ED91FC910190F081E02D0994FC01608385
:1004E0000895FF920F931F93CF93DF9300D0CDB762
:1004F000DEB7162FF52E032FFC01608180E991E015
:100500002A8349830E940104E0919001F0919101B6
:1005100084E0189FB00111246A5F7F4F0190F08141
:10052000E02D80E991E009954981642F7F2D80E9D4
:1005300091E00E9467026F2D70E080E991E00E94D7
:1005400067022A81622F702F80E991E00E94670282
:10055000602F70E080E991E00E94670280E991E0FD
:100560000F900F90DF91CF911F910F91FF900C94FE
:1005700082041F93CF93DF931F92CDB7DEB7162F60
:10058000FC01608180E991E049830E940104612FB0
:1005900080E991E00E94B8034981642F80E991E0ED
:1005A0000E94B80380E991E00F90DF91CF911F91F5
:1005B0000C94820440E060E00C94B902CF93DF9386
:1005C000EC0180E991E00E94F703CE01DF91CF9129
:1005D0000C94DA021F93CF93DF93EC01162F6881FE
:1005E00080E991E00E940104612F80E991E00E947E
:1005F000B80380E991E00E94820441E0688180E9CB
:1006000091E00E947F0480E991E00E946803DF91FD
:10061000CF911F910895CF92DF92EF92FF921F9397
:10062000CF93DF93EC01CB01BA0126E636E646E62E
:100630005FE30E94180D9B01AC0160E27CEB8EEB46
:1006400095E40E94A30B20E030E040E85FE30E94C5
:100650003E0B20E030E040E05FE30E943F0B0E9451
:10066000740C6B017C0160E0CE010E94EA02182F3D
:10067000482F4F76406160E0CE010E94B902C70169
:10068000B6010E940B0C462F6EEFCE010E94B902FC
:10069000412F60E0CE010E94B90265E070E080E089
:1006A00090E00E940907412F416A60E0CE01DF918E
:1006B000CF911F91FF90EF90DF90CF900C94B902F3
:1006C0008091C00190E02091C101821B91090895A1
:1006D0002091C1018091C001281750F4E22FF0E071
:1006E000EE53FE4F808190E02F5F2093C10108956B
:1006F0008FEF9FEF0895E091C1018091C001E8174D
:1007000030F4F0E0EE53FE4F808190E008958FEFDB
:100710009FEF08950895CF92DF92EF92FF920F938B
:100720001F93CF93DF937C01CB018A0120919C0121
:10073000222389F0EB016B01C40ED51ECC15DD051B
:1007400069F06991D701ED91FC910190F081E02D64
:10075000C7010995F3CF642F0E944605C801DF91B8
:10076000CF911F910F91FF90EF90DF90CF90089560
:10077000CF93DF931F92CDB7DEB7698320919C01A1
:100780002223D1F020919D01203240F021E030E081
:10079000FC013383228380E090E015C080919E01AC
:1007A000E82FF0E0E156FE4F998190838F5F8093B0
:1007B0009E0180939D0105C061E0CE0101960E94DB
:1007C000460581E090E00F90DF91CF910895FC0104
:1007D0001382128248EE53E060E070E04483558358
:1007E000668377838DE191E09183808308951092F1
:1007F000C1011092C00110929E0110929D010C94B3
:10080000890481E080939C016093BF0110929E0156
:1008100010929D0108950F93062F21E040919D01B4
:100820006FE971E08091BF010E94EF0410929E0178
:1008300010929D0110929C010F9108958F929F92AA
:10084000AF92BF92CF92DF92EF92FF920F931F93DE
:10085000CF93DF93EC01F62ED42E48015901EE2000
:1008600019F10E9401041E2D143008F013E01150FC
:10087000B8F0E881F98128E0129FB0011124A501A8
:10088000940104C056954795379527956A95D2F7F8
:10089000CA01B9010190F081E02DCE010995E7CFA1
:1008A00060E0CE010E940B044D2D413208F040E281
:1008B0002C2D62EC71E08F2D0E94A7041092C101D3
:1008C0008093C001DF91CF911F910F91FF90EF9026
:1008D000DF90CF90BF90AF909F908F900895CF9270
:1008E000EF920F931F93C22EE12C00E010E09801CD
:1008F0000E941E041F910F91EF90CF90089521E068
:100900000C946F0461E00C940B0480E991E00C946A
:10091000E70310924F0281E080934D0210924C0247
:1009200061E082E10E94CE0761E083E10E94CE0790
:10093000E9EBF0E080818E7F808380818D7F8083F2
:1009400088E48093B80085E48093BC000895413228
:1009500008F043C090914F029111FCCF91E0909329
:100960004F0220934D022FEF2093E20110922702B5
:10097000240F2093260290934E0290914E02880FEE
:10098000892B80934E0280914C02813061F4109249
:100990004C0280914E028093BB008091BC0083FD8D
:1009A000F8CF85EC01C085EE8093BC0080914F02AA
:1009B0008130E1F380912702841710F440912702DF
:1009C00028E232E0FB01D9018A2F821B841718F438
:1009D0008D918193F9CF842F089580E008950F932E
:1009E000413208F04AC090914F029111FCCF92E041
:1009F00090934F0200934D029FEF9093E20110926B
:100A0000270240932602FB0168E272E0DB019A2F85
:100A1000961B941718F491919D93F9CF10924E0262
:100A200090914E02880F892B80934E0280914C0248
:100A3000813061F410924C0280914E028093BB0091
:100A40008091BC0083FDF8CF85EC01C085EE8093DA
:100A5000BC00222321F080914F028230E1F380918B
:100A6000E2018F3F61F08091E201803251F080918C
:100A7000E201803341F483E007C081E005C080E0FB
:100A800003C082E001C084E00F910895613298F4C0
:100A900020914F02243089F460930402FC0186E027
:100AA00092E0DC012A2F281B261718F421912D93A0
:100AB000F9CF80E0089581E0089582E0089585ED02
:100AC0008093BC008091BC0084FDFCCF10924F024B
:100AD000089585EC8093BC0010924F0208951F92F8
:100AE0000F920FB60F9211242F933F934F935F9362
:100AF0006F937F938F939F93AF93BF93EF93FF93E6
:100B00008091B900887F803609F49EC078F58832DC
:100B100009F45DC090F4803109F456C038F488239C
:100B200009F4F5C0883009F44FC0F5C0883109F4E4
:100B30004EC0803209F45FC0EEC0803409F46AC050
:100B400058F4803309F457C0883309F0E4C0809327
:100B5000E2010E946905DFC0803509F44FC0883585
:100B600009F45DC0883409F0D6C0D3C0883909F4CF
:100B7000C4C0A8F4883709F467C038F4883609F48B
:100B800063C0803709F460C0C6C0883809F4B5C0B6
:100B9000803909F45FC0803809F0BDC05BC0803B7C
:100BA00009F483C038F4803A09F466C0883A09F43D
:100BB0007CC0B1C0803C09F4A4C0883C09F4A1C049
:100BC000883B09F487C0A7C080914E0210C0909165
:100BD000270280912602981770F5E091270281E0A4
:100BE0008E0F80932702F0E0E85DFD4F80818093B7
:100BF000BB0085EC83C08093E2018BC0E0912702AB
:100C000081E08E0F809327028091BB00F0E0E85DC9
:100C1000FD4F808390912702809126026BC0E09166
:100C2000270281E08E0F809327028091BB00F0E0C5
:100C3000E85DFD4F808380914D0281116AC081E0A3
:100C400080934C0284EA5EC083E080934F0210924E
:100C5000E301CFCF8091E301803208F04EC0E091F4
:100C6000E30181E08E0F8093E3018091BB00F0E00F
:100C7000EC51FE4F8083BDCF0E9469058091E30156
:100C8000803230F4E091E301F0E0EC51FE4F10824D
:100C90006091E30170E0E0914802F091490284EE36
:100CA00091E009951092E30136C084E080934F02F1
:100CB0001092050210920402E0914A02F0914B0258
:100CC000099580910402811105C081E0809304029E
:100CD00010920602E091050281E08E0F80930502DA
:100CE000F0E0EA5FFD4F80818093BB0090910502A8
:100CF00080910402981708F47CCF85E88093BC00AB
:100D00000AC085EC8093BC0010924F0204C0109280
:100D1000E2010E945F05FF91EF91BF91AF919F911A
:100D20008F917F916F915F914F913F912F910F9094
:100D30000FBE0F901F9018951F920F920FB60F9233
:100D400011242F933F938F939F93AF93BF938091E1
:100D5000510290915202A0915302B09154023091ED
:100D6000500223E0230F2D3720F40196A11DB11D61
:100D700005C026E8230F0296A11DB11D2093500245
:100D80008093510290935202A0935302B093540265
:100D90008091550290915602A0915702B09158024D
:100DA0000196A11DB11D8093550290935602A09308
:100DB0005702B0935802BF91AF919F918F913F918D
:100DC0002F910F900FBE0F901F9018953FB7F8947A
:100DD0008091550290915602A0915702B09158020D
:100DE00026B5A89B05C02F3F19F00196A11DB11D86
:100DF0003FBF6627782F892F9A2F620F711D811DA3
:100E0000911D42E0660F771F881F991F4A95D1F701
:100E10000895CF92DF92EF92FF92CF93DF936B0111
:100E20007C010E94E606EB01C114D104E104F10447
:100E300089F00E943D0B0E94E6066C1B7D0B683E0C
:100E4000734090F381E0C81AD108E108F108C85155
:100E5000DC4FEACFDF91CF91FF90EF90DF90CF9002
:100E60000895789484B5826084BD84B5816084BD22
:100E700085B5826085BD85B5816085BDEEE6F0E013
:100E8000808181608083E1E8F0E01082808182606F
:100E90008083808181608083E0E8F0E080818160F0
:100EA0008083E1EBF0E0808184608083E0EBF0E020
:100EB000808181608083EAE7F0E0808184608083C4
:100EC000808182608083808181608083808180686E
:100ED00080831092C1000895833081F028F481301E
:100EE00099F08230A1F008958730A9F08830B9F0E8
:100EF0008430D1F4809180008F7D03C08091800088
:100F00008F7780938000089584B58F7702C084B571
:100F10008F7D84BD08958091B0008F7703C080914C
:100F2000B0008F7D8093B0000895CF93DF9390E061
:100F3000FC01E458FF4F2491FC01E057FF4F8491DE
:100F4000882349F190E0880F991FFC01E854FF4F76
:100F5000A591B49182559F4FFC01C591D4919FB743
:100F6000611108C0F8948C91209582238C9388811C
:100F700082230AC0623051F4F8948C91322F30955C
:100F800083238C938881822B888304C0F8948C916E
:100F9000822B8C939FBFDF91CF9108950F931F9366
:100FA000CF93DF931F92CDB7DEB7282F30E0F90142
:100FB000E859FF4F8491F901E458FF4F1491F9016A
:100FC000E057FF4F04910023C9F0882321F0698383
:100FD0000E946C076981E02FF0E0EE0FFF1FE255E1
:100FE000FF4FA591B4919FB7F8948C91611103C004
:100FF0001095812301C0812B8C939FBF0F90DF91AF
:10100000CF911F910F910895CF93DF93282F30E058
:10101000F901E859FF4F8491F901E458FF4FD49149
:10102000F901E057FF4FC491CC2391F081110E9448
:101030006C07EC2FF0E0EE0FFF1FEC55FF4FA59172
:10104000B4912C912D2381E090E021F480E002C046
:1010500080E090E0DF91CF910895FC01818D228D99
:1010600090E0805C9F4F821B91098F7399270895B0
:10107000FC01918D828D981731F0828DE80FF11D62
:10108000858D90E008958FEF9FEF0895FC01918D7D
:10109000828D981761F0828DDF01A80FB11D5D96DA
:1010A0008C91928D9F5F9F73928F90E008958FEF48
:1010B0009FEF08958AEC99E0892B49F080E090E059
:1010C000892B29F00E94CA0981110C94000008950F
:1010D000FC01848DDF01A80FB11DA35ABF4F2C91D5
:1010E000848D90E001968F739927848FA689B789A4
:1010F0002C93A089B1898C9180648C93938D848D7D
:10110000981306C00288F389E02D80818F7D80834B
:101110000895CF93DF93EC01888D8823C9F0EA8985
:10112000FB89808185FD05C0A889B9898C9186FDE0
:101130000FC00FB607FCF5CF808185FFF2CFA889DD
:10114000B9898C9185FFEDCFCE010E946808E7CF69
:10115000DF91CF910895CF92DF92FF920F931F936B
:10116000CF93DF931F92CDB7DEB76C0181E0D6013C
:1011700058968C9358975B969C915B975C968C9154
:101180005C97981307C05096ED91FC915197808120
:1011900085FD2EC0F601038D10E00F5F1F4F0F730A
:1011A0001127F02EF601848DF81211C00FB607FC3E
:1011B000F9CFD6015096ED91FC915197808185FF32
:1011C000F1CFC60169830E9468086981EBCF838DE6
:1011D000E80FF11DE35AFF4F6083D6015B960C9335
:1011E0005B975296ED91FC915397808180620CC081
:1011F000D6015696ED91FC91579760835096ED91EC
:10120000FC91519780818064808381E090E00F9011
:10121000DF91CF911F910F91FF90DF90CF900895B4
:10122000BF92CF92DF92EF92FF92CF93DF93EC01C8
:101230006A017B01B22EE889F98982E08083411539
:1012400081EE580761057105A1F060E079E08DE35A
:1012500090E0A70196010E947B0D215031094109C0
:1012600051095695479537952795211580E13807FF
:1012700098F0E889F989108260E874E88EE190E0DE
:10128000A70196010E947B0D2150310941095109A6
:101290005695479537952795EC85FD853083EE85E6
:1012A000FF852083188EEC89FD89B082EA89FB894D
:1012B000808180618083EA89FB8980818860808366
:1012C000EA89FB89808180688083EA89FB89808143
:1012D0008F7D8083DF91CF91FF90EF90DF90CF9053
:1012E000BF9008951F920F920FB60F9211242F9363
:1012F0008F939F93EF93FF93E0916902F0916A02BD
:101300008081E0916F02F091700282FD12C09081A5
:10131000809172028F5F8F7320917302821751F058
:10132000E0917202F0E0E75AFD4F958F80937202D0
:1013300001C08081FF91EF919F918F912F910F902C
:101340000FBE0F901F9018951F920F920FB60F921D
:1013500011242F933F934F935F936F937F938F93BA
:101360009F93AF93BF93EF93FF9389E592E00E9421
:101370006808FF91EF91BF91AF919F918F917F91FD
:101380006F915F914F913F912F910F900FBE0F90F2
:101390001F90189589E592E00E942D0821E0892B85
:1013A00009F420E0822F089510925C0210925B02F3
:1013B00088EE93E0A0E0B0E080935D0290935E023F
:1013C000A0935F02B09360028DE291E090935A0285
:1013D0008093590285EC90E09093660280936502B9
:1013E00084EC90E0909368028093670280EC90E038
:1013F00090936A028093690281EC90E090936C0272
:1014000080936B0282EC90E090936E0280936D0269
:1014100086EC90E09093700280936F0210927202BB
:10142000109273021092740210927502089508953A
:101430000E9431070E94170A0E948E00CAE5D8E078
:101440000E94DD002097E1F30E945A08F9CFCF9265
:10145000DF92EF92FF920F931F93CF93DF937C0164
:101460006A01EB0100E010E00C151D0571F06991B7
:10147000D701ED91FC910190F081E02DC701099514
:10148000892B19F00F5F1F4FEFCFC801DF91CF916C
:101490001F910F91FF90EF90DF90CF90089561150D
:1014A000710581F0DB010D900020E9F7AD0141509D
:1014B0005109461B570BDC01ED91FC910280F38131
:1014C000E02D099480E090E00895DC01ED91FC911D
:1014D0000190F081E02D099469E371E00C944F0ACA
:1014E0000F931F93CF93DF93EC010E944F0A8C015F
:1014F000CE010E946C0A800F911FDF91CF911F9146
:101500000F9108958F929F92AF92BF92CF92DF92E8
:10151000EF92FF920F931F93CF93DF93CDB7DEB778
:10152000A1970FB6F894DEBF0FBECDBF7C01C42ECD
:10153000E52FCB01D22E19A221E02D1510F02AE0C3
:10154000D22E8E010F5D1F4F8D2C912CA12CB12C12
:101550006C2D7E2FA50194010E947B0D8C2DD29EB7
:1015600080191124015011098A3014F4805D01C0E2
:10157000895CF8018083211531054105510521F071
:10158000C22EE32FCA01E4CFB801C7010E944F0A5F
:10159000A1960FB6F894DEBF0FBECDBFDF91CF91FD
:1015A0001F910F91FF90EF90DF90CF90BF90AF9081
:1015B0009F908F900895CF92DF92EF92FF920F93BA
:1015C0001F93CF93DF93EC016A017B012115310555
:1015D00079F4E881F9810190F081E02D642FDF91A9
:1015E000CF911F910F91FF90EF90DF90CF900994D2
:1015F0002A303105E9F477FF1AC06DE20E94650ACE
:101600008C0144275527BA014C195D096E097F09E1
:101610002AE0CE010E94820A800F911FDF91CF91B4
:101620001F910F91FF90EF90DF90CF9008952AE0E7
:10163000B701A601CE01DF91CF911F910F91FF90CD
:10164000EF90DF90CF900C94820A0F931F93CF936B
:10165000DF93EC019A01AB01662757FD6095762F69
:101660000E94DB0A8C01CE010E946C0A800F911F40
:10167000DF91CF911F910F91089508955058BB2786
:10168000AA270ED084C175D130F07AD120F031F480
:101690009F3F11F41EF46AC10EF4E095E7FB37C1D9
:1016A000E92F86D180F3BA1762077307840795077D
:1016B00018F071F49EF5B5C10EF4E0950B2EBA2F1B
:1016C000A02D0B01B90190010C01CA01A001112448
:1016D000FF27591B99F0593F50F4503E68F11A16F4
:1016E000F040A22F232F342F4427585FF3CF469585
:1016F00037952795A795F0405395C9F77EF41F16A7
:10170000BA0B620B730B840BBAF09150A1F0FF0F70
:10171000BB1F661F771F881FC2F70EC0BA0F621F5C
:10172000731F841F48F4879577956795B795F7954C
:101730009E3F08F0B3CF9395880F08F09927EE0FDE
:101740009795879508950CD022C11AD140F011D1F8
:1017500030F021F45F3F19F0DAC0511163C106C1C6
:1017600027D198F39923C9F35523B1F3951B550B52
:10177000BB27AA2762177307840738F09F5F5F4F64
:10178000220F331F441FAA1FA9F333D00E2E3AF0A5
:10179000E0E830D091505040E695001CCAF729D0BF
:1017A000FE2F27D0660F771F881FBB1F261737070E
:1017B0004807AB07B0E809F0BB0B802DBF01FF273E
:1017C00093585F4F2AF09E3F510568F0A0C02AC190
:1017D0005F3FECF3983EDCF3869577956795B79578
:1017E000F7959F5FC9F7880F911D9695879597F993
:1017F0000895E1E0660F771F881FBB1F621773070C
:101800008407BA0720F0621B730B840BBA0BEE1F20
:1018100088F7E0950895D4D088F09F5790F0B92FBD
:101820009927B751A0F0D1F0660F771F881F991F35
:101830001AF0BA95C9F712C0B13081F0F2D0B1E018
:101840000895EFC0672F782F8827B85F39F0B93F28
:10185000CCF3869577956795B395D9F73EF4909537
:101860008095709561957F4F8F4F9F4F0895E894B5
:1018700009C097FB3EF490958095709561957F4FD8
:101880008F4F9F4F9923A9F0F92F96E9BB27939586
:10189000F695879577956795B795F111F8CFFAF496
:1018A000BB0F11F460FF1BC06F5F7F4F8F4F9F4FC7
:1018B00016C0882311F096E911C0772321F09EE825
:1018C000872F762F05C0662371F096E8862F70E08B
:1018D00060E02AF09A95660F771F881FDAF7880F65
:1018E0009695879597F9089585D080F09F3740F4B5
:1018F00091110EF097C060E070E080E89FEB0895D2
:1019000026F41B16611D711D811D07C021C097F9AA
:101910009F6780E870E060E00895882371F4772382
:1019200021F09850872B762F07C0662311F4992752
:101930000DC09051862B70E060E02AF09A95660FFA
:10194000771F881FDAF7880F9695879597F908957E
:101950009F3F31F0915020F4879577956795B79523
:10196000880F911D9695879597F908959FEF80ECC4
:10197000089500240A9416161706180609060895F5
:1019800000240A9412161306140605060895092E5B
:101990000394000C11F4882352F0BB0F40F4BF2BCA
:1019A00011F460FF04C06F5F7F4F8F4F9F4F08950A
:1019B00057FD9058440F551F59F05F3F71F0479500
:1019C000880F97FB991F61F09F3F79F087950895E5
:1019D000121613061406551FF2CF4695F1DF08C004
:1019E000161617061806991FF1CF86957105610521
:1019F00008940895E5DFA0F0BEE7B91788F4BB2787
:101A00009F3860F41616B11D672F782F8827985FCE
:101A1000F7CF869577956795B11D93959639C8F35D
:101A20000895E894BB2766277727CB0197F9089597
:101A30000BD0ADCF9EDF28F0A3DF18F0952309F07F
:101A400066CF94CF1124EECFB3DFA0F3959FD1F3EF
:101A5000950F50E0551F629FF001729FBB27F00D5C
:101A6000B11D639FAA27F00DB11DAA1F649F6627B1
:101A7000B00DA11D661F829F2227B00DA11D621F00
:101A8000739FB00DA11D621F839FA00D611D221FBA
:101A9000749F3327A00D611D231F849F600D211D9E
:101AA000822F762F6A2F11249F5750408AF0E1F041
:101AB00088234AF0EE0FFF1FBB1F661F771F881F8A
:101AC00091505040A9F79E3F510570F020CFAACF0A
:101AD0005F3FECF3983EDCF3869577956795B79575
:101AE000F795E7959F5FC1F7FE2B880F911D96959F
:101AF000879597F90895A1E21A2EAA1BBB1BFD0139
:101B00000DC0AA1FBB1FEE1FFF1FA217B307E407DC
:101B1000F50720F0A21BB30BE40BF50B661F771F34
:101B2000881F991F1A9469F7609570958095909514
:101B30009B01AC01BD01CF010895EE0FFF1F059081
:0A1B4000F491E02D0994F894FFCF12
:101B4A006F6E00627574746F6E2070726573736560
:101B5A0073203D20006F66660000000000B8038B0A
:101B6A0003600368037B038A0300000000AB0827B5
:101B7A000A2D084608380889080D0A006E616E00A9
:0A1B8A00696E66006F7666002E009B
:00000001FF
