:100000000C9462000C948A000C948A000C948A0070
:100010000C948A000C948A000C948A000C948A0038
:100020000C948A000C948A000C948A000C948A0028
:100030000C948A000C948A000C948A000C948A0018
:100040000C9476030C948A000C941B030C94F50218
:100050000C948A000C948A000C948A000C948A00F8
:100060000C94C0030C948A000000000024002700B8
:100070002A000000000023002600290000000000E4
:10008000250028002B0004040404040404040202D4
:100090000202020203030303030301020408102007
:1000A0004080010204081020010204081020000012
:1000B0000008000201000003040700000000000027
:1000C00000003C0811241FBECFEFD8E0DEBFCDBF3B
:1000D00011E0A0E0B1E0E8E3F2E102C005900D928A
:1000E000AC33B107D9F722E0ACE3B1E001C01D9217
:1000F000A83EB207E1F710E0C2E6D0E004C02197C5
:10010000FE010E940F09C136D107C9F70E94DC0524
:100110000C941A090C940000FC01918D828D9817A3
:1001200061F0828DDF01A80FB11D5D968C91928DDB
:100130009F5F9F73928F90E008958FEF9FEF0895D8
:10014000FC01918D828D981731F0828DE80FF11DA1
:10015000858D90E008958FEF9FEF0895FC01918DBC
:10016000228D892F90E0805C9F4F821B91098F73B5
:10017000992708958FEF91E00E94AE0021E0892B2E
:1001800009F420E0822F0895FC01848DDF01A80F7F
:10019000B11DA35ABF4F2C91848D90E001968F73AF
:1001A0009927848FA689B7892C93A089B1898C91CE
:1001B00080648C93938D848D981306C00288F38994
:1001C000E02D80818F7D80830895EF92FF920F93C1
:1001D0001F93CF93DF93EC0181E0888F9B8D8C8DF3
:1001E000981305C0E889F989808185FD24C0F62E21
:1001F0000B8D10E00F5F1F4F0F731127E02E8C8DBA
:10020000E8120CC00FB607FCFACFE889F9898081A3
:1002100085FFF5CFCE010E94C400F1CF8B8DFE018A
:10022000E80FF11DE35AFF4FF0820B8FEA89FB893B
:100230008081806207C0EE89FF896083E889F9893F
:1002400080818064808381E090E0DF91CF911F9175
:100250000F91FF90EF900895CF93DF93EC01888D7D
:100260008823C9F0EA89FB89808185FD05C0A889BA
:10027000B9898C9186FD0FC00FB607FCF5CF808140
:1002800085FFF2CFA889B9898C9185FFEDCFCE018A
:100290000E94C400E7CFDF91CF91089580E090E005
:1002A000892B29F00E94BA0081110C940000089556
:1002B0003FB7F8948091880190918901A0918A01BB
:1002C000B0918B0126B5A89B05C02F3F19F0019670
:1002D000A11DB11D3FBFBA2FA92F982F8827820FCC
:1002E000911DA11DB11DBC01CD0142E0660F771F1C
:1002F000881F991F4A95D1F708958F929F92AF92C8
:10030000BF92CF92DF92EF92FF926B017C010E942D
:1003100058014B015C01C114D104E104F104F1F076
:100320000E945801DC01CB0188199909AA09BB096F
:10033000883E9340A105B10570F321E0C21AD108AF
:10034000E108F10888EE880E83E0981EA11CB11C1C
:10035000C114D104E104F10419F7DDCFFF90EF904F
:10036000DF90CF90BF90AF909F908F90089585EDD4
:100370008093BC008091BC0084FDFCCF1092DA0118
:10038000089540915E01262F30E0240F311D213267
:100390003105DCF42091DA012430C9F4FC0180E05D
:1003A00090E0861758F430915E012191DC01A45C45
:1003B000BE4FA30FB11D2C930196F3CF80915E0128
:1003C000680F60935E0180E0089581E0089582E007
:1003D00008950895E091AD018091AC01E81730F4E3
:1003E000F0E0E457FE4F808190E008958FEF9FEF9B
:1003F00008959091AD018091AC01981750F4E92FC8
:10040000F0E0E457FE4F208130E09F5F9093AD0114
:1004100002C02FEF3FEFC90108958091AC0190E039
:100420002091AD01821B91090895CF92DF92EF9246
:10043000FF920F931F93CF93DF937C01262F972F6B
:100440008A018091DB01882391F0C62FD72F6E019E
:10045000C40ED51ECC15DD0571F06991D701ED9163
:10046000FC910190F081E02DC7010995F3CF642F35
:10047000822F0E94C101C801DF91CF911F910F917E
:10048000FF90EF90DF90CF900895CF93DF931F926E
:10049000CDB7DEB769832091DB012223D1F0209113
:1004A000FE01203240F021E030E0FC013383228362
:1004B00080E090E015C08091DC01E82FF0E0E3528D
:1004C000FE4F998190838F5F8093DC018093FE01C2
:1004D00005C061E0CE0101960E94C10181E090E07B
:1004E0000F90DF91CF9108950E9415090F931F93EC
:1004F000CF93DF9300D0CDB7DEB7152F032FFC01CC
:10050000808191E09093DB018093FD011092DC01EA
:100510001092FE01F4E06F9FB00111246A5F7F4FDB
:100520008CE992E02A8349830E9445024981842F05
:10053000912F0E947605812F90E00E9476052A81F6
:10054000822F902F0E947605802F90E00E947605E2
:1005500081E00F900F90DF91CF911F910F910C943C
:100560001905CF93DF93EC018B819C8120E030E073
:1005700040E050E06A81CB960E9476028B819C819C
:1005800020E030E040E050E16981CB96DF91CF91EF
:100590000C9476029A01CB96211540E1340728F09D
:1005A00020E030E040E050E102C040E050E00C9438
:1005B00076021092DA0181E08093D9011092B401A1
:1005C00082E10E94960583E10E949605E9EBF0E046
:1005D00080818E7F808380818D7F808388E480937B
:1005E000B80085E48093BC0008951F920F920FB667
:1005F0000F9211242F933F934F935F936F937F93A9
:100600008F939F93AF93BF93EF93FF938FEF91E0FF
:100610000E94C400FF91EF91BF91AF919F918F9184
:100620007F916F915F914F913F912F910F900FBEEE
:100630000F901F9018951F920F920FB60F921124D2
:100640002F938F939F93EF93FF93E0910F02F0917D
:1006500010028081E0911502F091160282FD12C015
:100660009081809118028F5F8F73209119028217F9
:1006700051F0E0911802F0E0E150FE4F958F809329
:10068000180201C08081FF91EF919F918F912F916E
:100690000F900FBE0F901F901895833081F028F4B3
:1006A000813099F08230A1F008958730A9F0883028
:1006B000B9F08430D1F4809180008F7D03C08091A7
:1006C00080008F7780938000089584B58F7702C073
:1006D00084B58F7D84BD08958091B0008F7703C06D
:1006E0008091B0008F7D8093B00008951F920F928B
:1006F0000FB60F9211242F933F938F939F93AF9335
:10070000BF938091840190918501A0918601B09161
:1007100087013091830123E0230F2D3720F40196C8
:10072000A11DB11D05C026E8230F0296A11DB11D14
:10073000209383018093840190938501A093860187
:10074000B09387018091880190918901A0918A01DD
:10075000B0918B010196A11DB11D809388019093EA
:100760008901A0938A01B0938B01BF91AF919F91B2
:100770008F913F912F910F900FBE0F901F90189562
:100780001F920F920FB60F9211242F933F934F9306
:100790005F936F937F938F939F93AF93BF93EF93E9
:1007A000FF938091B900887F803609F49CC068F57A
:1007B000883209F45BC090F4803109F454C038F4F5
:1007C000882309F4F6C0883009F44DC0F6C088319A
:1007D00009F44CC0803209F45DC0EFC0803409F4E4
:1007E00068C048F4803309F455C0883309F0E5C087
:1007F0008093D801D8C0803509F44FC0883509F4FA
:100800005DC0883409F0D9C0D6C0883909F4C7C0A2
:10081000A8F4883709F467C038F4883609F463C04F
:10082000803709F460C0C9C0883809F4B8C080397D
:1008300009F45FC0803809F0C0C05BC0803B09F498
:1008400086C038F4803A09F466C0883A09F47FC05B
:10085000B4C0803C09F4A7C0883C09F4A4C0883B1C
:1008600009F48AC0AAC08091B50110C09091D70147
:100870008091D601981770F5E091D70181E08E0F35
:100880008093D701F0E0EA54FE4F80818093BB0053
:1008900085EC86C08093D8018EC0E091D70181E0BD
:1008A0008E0F8093D7018091BB00F0E0EA54FE4F99
:1008B00080839091D7018091D6016EC0E091D701DD
:1008C00081E08E0F8093D7018091BB00F0E0EA5465
:1008D000FE4F80838091D90181116DC081E08093AA
:1008E000B40184EA61C083E08093DA01109282014E
:1008F000CFCF80918201803208F051C0E091820117
:1009000081E08E0F809382018091BB00F0E0EE5970
:10091000FE4F8083BDCF85EC8093BC001092DA013E
:1009200080918201803230F4E0918201F0E0EE5952
:10093000FE4F10826091820170E0E0916001F091C1
:10094000610182E691E009951092820136C084E04F
:100950008093DA0110925F0110925E01E0915C01D8
:10096000F0915D01099580915E01811105C081E0E2
:1009700080935E0110923C01E0915F0181E08E0F57
:1009800080935F01F0E0E45CFE4F80818093BB00C8
:1009900090915F0180915E01981708F479CF85E806
:1009A0008093BC000AC085EC8093BC001092DA01F1
:1009B00004C01092D8010E94B701FF91EF91BF913E
:1009C000AF919F918F917F916F915F914F913F91E7
:1009D0002F910F900FBE0F901F901895CF92DF921E
:1009E000EF92FF920F931F93CF93DF936C017A01E5
:1009F0008B01C0E0D0E0CE15DF0589F0D8016D9104
:100A00008D01D601ED91FC910190F081E02DC601A0
:100A10000995892B11F47E0102C02196ECCFC70104
:100A2000DF91CF911F910F91FF90EF90DF90CF90CA
:100A30000895382F2091FE019091FD01213208F098
:100A400049C08091DA018111FCCF42E04093DA0184
:100A50003093D9013FEF3093D8011092D701209302
:100A6000D601ADEDB1E046EB51E0FA013E2F341B6B
:100A7000321718F43D913193F9CF1092B5012091BE
:100A8000B501990F922B9093B5019091B4019130DB
:100A900061F41092B4019091B5019093BB009091D4
:100AA000BC0093FDF8CF95EC01C095EE9093BC008F
:100AB0009091DA019230E1F39091D8019F3F79F063
:100AC0008091D801803241F08091D801803331F09B
:100AD00084E005C081E003C082E001C083E01092A1
:100AE000DC011092FE011092DB010895682F8CE961
:100AF00092E00C944502CF93C62F9091E70221E03B
:100B00002093DB019093FD011092DC011092FE0115
:100B1000682F8CE992E00E9445026C2F8CE992E0EC
:100B20000E94450281E0CF910C941905CF93DF9389
:100B3000282F30E0F901E255FF4F8491F901E65684
:100B4000FF4FD491F901EA57FF4FC491CC2389F0AC
:100B500081110E944D03EC2FF0E0EE0FFF1FE458CF
:100B6000FF4FA591B4918FB7F894EC91ED2BEC93D6
:100B70008FBFDF91CF910895009769F0FC0101903C
:100B80000020E9F73197AF01481B590BBC018FEFEB
:100B900091E00C94EE0480E090E00895CF93DF9311
:100BA0000E94BC05EC0185E391E00E94BC058C0F1E
:100BB0009D1FDF91CF910895CF93DF93CDB7DEB71F
:100BC000A1970FB6F894DEBF0FBECDBF789484B561
:100BD000826084BD84B5816084BD85B5826085BD39
:100BE00085B5816085BD80916E00816080936E00C7
:100BF00010928100809181008260809381008091B9
:100C00008100816080938100809180008160809369
:100C100080008091B10084608093B1008091B00029
:100C200081608093B00080917A00846080937A0024
:100C300080917A00826080937A0080917A0081604E
:100C400080937A0080917A00806880937A00109275
:100C5000C100E0910F02F091100282E08083E091E8
:100C60000B02F0910C021082E0910D02F0910E0245
:100C70008FEC808310921702E0911302F09114021E
:100C800086E08083E0911102F09112028081806100
:100C90008083E0911102F09112028081886080834C
:100CA000E0911102F0911202808180688083E091CE
:100CB0001102F091120280818F7D808342EAE42E3E
:100CC00040E0F42EF70124915EE8C52E50E0D52EC9
:100CD000F60184918823C9F090E0880F991FFC01E8
:100CE000E859FF4FA591B491FC01E458FF4F45919D
:100CF00054913FB7F8949C91822F809598239C93B0
:100D0000FA019081892380833FBF1092AD01109238
:100D1000AC011092DC011092FE010E94D9021092E7
:100D2000DC011092FE010E94D90260E080E00E9486
:100D30007B0580E496E09093AE028093AD028091B3
:100D4000E70291E09093DB018093FD011092DC01BA
:100D50001092FE0160E08CE992E00E94450281E081
:100D60000E9419058091E7029091DA019111FCCF60
:100D700091E09093DA019093D9012FEF2093D8015D
:100D80001092D7011092D6019093B5019091B501C0
:100D9000880F892B8093B5018091B401813061F473
:100DA0001092B4018091B5018093BB008091BC008A
:100DB00083FDF8CF85EC01C085EE8093BC00809167
:100DC000DA018130E1F38091D701811103C0809174
:100DD000D70101C081E0A6EBB1E02CE831E0F901D8
:100DE0009E2F921B981718F49D919193F9CF109212
:100DF000AD018093AC018CE992E00E94F901182FBB
:100E0000682F6F76606180E00E947B0563E08EEF63
:100E10000E947B05612F80E00E947B0565E070E009
:100E200080E090E00E947D01612F616A80E00E9475
:100E30007B0510E020E030E040E050E0612F87EEDD
:100E400092E00E9476021F5F1031A1F796EB692EA7
:100E500090E0792E2AE0822E912CA12CB12CF30166
:100E60008491F7010491F60114911123A1F08111ED
:100E70000E944D03E12FF0E0EE0FFF1FEE58FF4FF1
:100E8000A591B4918C91082331E020E009F430E081
:100E9000832F922F02C080E090E09093B301809363
:100EA000B2012091B0013091B1018217930709F48A
:100EB0006BC0019709F05EC08091AE019091AF01C7
:100EC00001969093AF018093AE0180E291E00E9481
:100ED000CE0583E291E00E94CE052090AE013090D5
:100EE000AF01032C000C4408550857FE26C0E091C2
:100EF000FF01F09100020190F081E02D6DE28FEF93
:100F000091E0099522273327A901221933094409C1
:100F1000550919A28E010F5D1F4FCA01B901A50124
:100F200094010E94ED08605DF80162938F01211524
:100F300031054105510589F715C0A201910119A29A
:100F40008E010F5D1F4FCA01B901A50194010E94D6
:100F5000ED08605DF80162938F01211531054105AF
:100F6000510589F7C8010E94BC0585E391E00E9404
:100F7000BC0504C088E391E00E94CE0562E370E006
:100F800080E090E00E947D018091B2019091B301D8
:100F90009093B1018093B0018091AE01E091AA02DB
:100FA000F091AB0280FD47C040E050E0608183815A
:100FB00094810E94CA020091AA021091AB02F8012A
:100FC0008381948120E030E040E050E06181CB9665
:100FD0000E947602F8018381948120E030E040E0B5
:100FE00050E06281CB960E947602E091A802F091D7
:100FF000A90240E050E06081838194810E94CA028E
:101000000091A8021091A902F8018381948120E047
:1010100030E040E050E06181CB960E947602F8011A
:101020008381948120E030E040E050E06281CB9603
:101030000E9476021EC040EF5FE060818381948150
:101040000E94CA028091AA029091AB020E94B10252
:10105000E091A802F091A90240EF5FE060818381F6
:1010600094810E94CA028091A8029091A9020E94D4
:10107000B1020E944E01F3CE1092020210920102C0
:1010800088EE93E0A0E0B0E0809303029093040226
:10109000A0930502B093060224E031E030930002F1
:1010A0002093FF0125EC30E030930C0220930B02DB
:1010B00024EC30E030930E0220930D0220EC30E05F
:1010C0003093100220930F0221EC30E03093120293
:1010D0002093110222EC30E030931402209313028B
:1010E00026EC30E03093160220931502109218027D
:1010F0001092190210921A0210921B0210929F0273
:1011000010929E028093A0029093A102A093A2024B
:10111000B093A30284E191E090939D0280939C029E
:10112000E1EBF2E01282118213821082DF0111974B
:101130001C9211971C92369682E0E93CF80791F7D1
:101140001092D3021092D6021092D2021092D102C3
:101150001092E3021092E6021092E2021092E10273
:1011600080E68093AC028093E7028091B402811103
:1011700011C01092B4028CEA92E09093B302809373
:10118000B20288E08093AF028AE08093B00289E0E7
:101190008093B1028FEA92E09093AB028093AA020F
:1011A0008091BA02811112C081E08093BA028CEA68
:1011B00092E09093B9028093B8028DE08093B502DB
:1011C0008BE08093B6028CE08093B70285EB92E0CF
:1011D0009093A9028093A8020895A1E21A2EAA1B57
:1011E000BB1BFD010DC0AA1FBB1FEE1FFF1FA217D7
:1011F000B307E407F50720F0A21BB30BE40BF50BD4
:10120000661F771F881F991F1A9469F7609570955C
:10121000809590959B01AC01BD01CF010895EE0F23
:10122000FF1F0590F491E02D099481E090E0F8947F
:081230000C941A09F894FFCF99
:1012380000000000E500EE04AE008C00A0002C01C8
:1012480000000000450215020D02F901EA01E9015A
:101258006F6E00627574746F6E207072657373655B
:0C12680073203D20000D0A006F66660038
:00000001FF
